{
  "_format": "hh-sol-artifact-1",
  "contractName": "WavePortal",
  "sourceName": "contracts/WavePortal.sol",
  "abi": [
    {
      "inputs": [],
      "stateMutability": "payable",
      "type": "constructor"
    },
    {
      "anonymous": false,
      "inputs": [
        {
          "indexed": true,
          "internalType": "address",
          "name": "from",
          "type": "address"
        },
        {
          "indexed": false,
          "internalType": "uint256",
          "name": "timestamp",
          "type": "uint256"
        },
        {
          "indexed": false,
          "internalType": "string",
          "name": "message",
          "type": "string"
        }
      ],
      "name": "NewWave",
      "type": "event"
    },
    {
      "inputs": [],
      "name": "getAllWaves",
      "outputs": [
        {
          "components": [
            {
              "internalType": "address",
              "name": "waver",
              "type": "address"
            },
            {
              "internalType": "string",
              "name": "message",
              "type": "string"
            },
            {
              "internalType": "uint256",
              "name": "timestamp",
              "type": "uint256"
            }
          ],
          "internalType": "struct WavePortal.Wave[]",
          "name": "",
          "type": "tuple[]"
        }
      ],
      "stateMutability": "view",
      "type": "function"
    },
    {
      "inputs": [],
      "name": "getTotalWaves",
      "outputs": [
        {
          "internalType": "uint256",
          "name": "",
          "type": "uint256"
        }
      ],
      "stateMutability": "view",
      "type": "function"
    },
    {
      "inputs": [
        {
          "internalType": "address",
          "name": "",
          "type": "address"
        }
      ],
      "name": "lastWavedAt",
      "outputs": [
        {
          "internalType": "uint256",
          "name": "",
          "type": "uint256"
        }
      ],
      "stateMutability": "view",
      "type": "function"
    },
    {
      "inputs": [
        {
          "internalType": "string",
          "name": "_message",
          "type": "string"
        }
      ],
      "name": "wave",
      "outputs": [],
      "stateMutability": "nonpayable",
      "type": "function"
    }
  ],
  "bytecode": "0x60806040526200004f6040518060400160405280601281526020017f54686973206973206120636f6e747261637400000000000000000000000000008152506200007760201b620006641760201c565b606442446200005f91906200017c565b6200006b9190620001e6565b600181905550620002dc565b62000117816040516024016200008e9190620002b8565b6040516020818303038152906040527f41304fac000000000000000000000000000000000000000000000000000000007bffffffffffffffffffffffffffffffffffffffffffffffffffffffff19166020820180517bffffffffffffffffffffffffffffffffffffffffffffffffffffffff83818316178352505050506200011a60201b60201c565b50565b60008151905060006a636f6e736f6c652e6c6f679050602083016000808483855afa5050505050565b6000819050919050565b7f4e487b7100000000000000000000000000000000000000000000000000000000600052601160045260246000fd5b6000620001898262000143565b9150620001968362000143565b9250828201905080821115620001b157620001b06200014d565b5b92915050565b7f4e487b7100000000000000000000000000000000000000000000000000000000600052601260045260246000fd5b6000620001f38262000143565b9150620002008362000143565b925082620002135762000212620001b7565b5b828206905092915050565b600081519050919050565b600082825260208201905092915050565b60005b838110156200025a5780820151818401526020810190506200023d565b60008484015250505050565b6000601f19601f8301169050919050565b600062000284826200021e565b62000290818562000229565b9350620002a28185602086016200023a565b620002ad8162000266565b840191505092915050565b60006020820190508181036000830152620002d4818462000277565b905092915050565b61147a80620002ec6000396000f3fe608060405234801561001057600080fd5b506004361061004c5760003560e01c8063449d46c0146100515780639a2cdc081461006d578063a42a46631461008b578063bd43a908146100bb575b600080fd5b61006b60048036038101906100669190610a57565b6100d9565b005b6100756104b0565b6040516100829190610ab9565b60405180910390f35b6100a560048036038101906100a09190610b32565b6104fb565b6040516100b29190610ab9565b60405180910390f35b6100c3610513565b6040516100d09190610d0e565b60405180910390f35b42601e600360003373ffffffffffffffffffffffffffffffffffffffff1673ffffffffffffffffffffffffffffffffffffffff168152602001908152602001600020546101269190610d5f565b10610166576040517f08c379a000000000000000000000000000000000000000000000000000000000815260040161015d90610e16565b60405180910390fd5b42600360003373ffffffffffffffffffffffffffffffffffffffff1673ffffffffffffffffffffffffffffffffffffffff1681526020019081526020016000208190555060016000808282546101bc9190610d5f565b925050819055506101e660405180606001604052806027815260200161141e6027913933836106fd565b600260405180606001604052803373ffffffffffffffffffffffffffffffffffffffff16815260200183815260200142815250908060018154018082558091505060019003906000526020600020906003020160009091909190915060008201518160000160006101000a81548173ffffffffffffffffffffffffffffffffffffffff021916908373ffffffffffffffffffffffffffffffffffffffff160217905550602082015181600101908161029e9190611042565b50604082015181600201555050606460015442446102bc9190610d5f565b6102c69190610d5f565b6102d09190611143565b6001819055506103176040518060400160405280601681526020017f52616e646f6d20232067656e6572617465643a2025640000000000000000000081525060015461079c565b60186001541161045d576103606040518060400160405280601181526020017f5468652077696e6e65722069732025732100000000000000000000000000000081525033610838565b6000655af3107a40009050478111156103ae576040517f08c379a00000000000000000000000000000000000000000000000000000000081526004016103a5906111e6565b60405180910390fd5b60003373ffffffffffffffffffffffffffffffffffffffff16826040516103d490611237565b60006040518083038185875af1925050503d8060008114610411576040519150601f19603f3d011682016040523d82523d6000602084013e610416565b606091505b505090508061045a576040517f08c379a0000000000000000000000000000000000000000000000000000000008152600401610451906112be565b60405180910390fd5b50505b3373ffffffffffffffffffffffffffffffffffffffff167f5f7e16dc676677766a70e9c5628aa6c54ddb8b6e5188e2ae1e1f17f1ffbea71642836040516104a5929190611317565b60405180910390a250565b60006104f36040518060400160405280601681526020017f5765206861766520256420746f74616c2077617665730000000000000000000081525060005461079c565b600054905090565b60036020528060005260406000206000915090505481565b60606002805480602002602001604051908101604052809291908181526020016000905b8282101561065b57838290600052602060002090600302016040518060600160405290816000820160009054906101000a900473ffffffffffffffffffffffffffffffffffffffff1673ffffffffffffffffffffffffffffffffffffffff1673ffffffffffffffffffffffffffffffffffffffff1681526020016001820180546105c090610e65565b80601f01602080910402602001604051908101604052809291908181526020018280546105ec90610e65565b80156106395780601f1061060e57610100808354040283529160200191610639565b820191906000526020600020905b81548152906001019060200180831161061c57829003601f168201915b5050505050815260200160028201548152505081526020019060010190610537565b50505050905090565b6106fa816040516024016106789190611347565b6040516020818303038152906040527f41304fac000000000000000000000000000000000000000000000000000000007bffffffffffffffffffffffffffffffffffffffffffffffffffffffff19166020820180517bffffffffffffffffffffffffffffffffffffffffffffffffffffffff83818316178352505050506108d4565b50565b61079783838360405160240161071593929190611378565b6040516020818303038152906040527fe0e9ad4f000000000000000000000000000000000000000000000000000000007bffffffffffffffffffffffffffffffffffffffffffffffffffffffff19166020820180517bffffffffffffffffffffffffffffffffffffffffffffffffffffffff83818316178352505050506108d4565b505050565b61083482826040516024016107b29291906113bd565b6040516020818303038152906040527fb60e72cc000000000000000000000000000000000000000000000000000000007bffffffffffffffffffffffffffffffffffffffffffffffffffffffff19166020820180517bffffffffffffffffffffffffffffffffffffffffffffffffffffffff83818316178352505050506108d4565b5050565b6108d0828260405160240161084e9291906113ed565b6040516020818303038152906040527f319af333000000000000000000000000000000000000000000000000000000007bffffffffffffffffffffffffffffffffffffffffffffffffffffffff19166020820180517bffffffffffffffffffffffffffffffffffffffffffffffffffffffff83818316178352505050506108d4565b5050565b60008151905060006a636f6e736f6c652e6c6f679050602083016000808483855afa5050505050565b6000604051905090565b600080fd5b600080fd5b600080fd5b600080fd5b6000601f19601f8301169050919050565b7f4e487b7100000000000000000000000000000000000000000000000000000000600052604160045260246000fd5b6109648261091b565b810181811067ffffffffffffffff821117156109835761098261092c565b5b80604052505050565b60006109966108fd565b90506109a2828261095b565b919050565b600067ffffffffffffffff8211156109c2576109c161092c565b5b6109cb8261091b565b9050602081019050919050565b82818337600083830152505050565b60006109fa6109f5846109a7565b61098c565b905082815260208101848484011115610a1657610a15610916565b5b610a218482856109d8565b509392505050565b600082601f830112610a3e57610a3d610911565b5b8135610a4e8482602086016109e7565b91505092915050565b600060208284031215610a6d57610a6c610907565b5b600082013567ffffffffffffffff811115610a8b57610a8a61090c565b5b610a9784828501610a29565b91505092915050565b6000819050919050565b610ab381610aa0565b82525050565b6000602082019050610ace6000830184610aaa565b92915050565b600073ffffffffffffffffffffffffffffffffffffffff82169050919050565b6000610aff82610ad4565b9050919050565b610b0f81610af4565b8114610b1a57600080fd5b50565b600081359050610b2c81610b06565b92915050565b600060208284031215610b4857610b47610907565b5b6000610b5684828501610b1d565b91505092915050565b600081519050919050565b600082825260208201905092915050565b6000819050602082019050919050565b610b9481610af4565b82525050565b600081519050919050565b600082825260208201905092915050565b60005b83811015610bd4578082015181840152602081019050610bb9565b60008484015250505050565b6000610beb82610b9a565b610bf58185610ba5565b9350610c05818560208601610bb6565b610c0e8161091b565b840191505092915050565b610c2281610aa0565b82525050565b6000606083016000830151610c406000860182610b8b565b5060208301518482036020860152610c588282610be0565b9150506040830151610c6d6040860182610c19565b508091505092915050565b6000610c848383610c28565b905092915050565b6000602082019050919050565b6000610ca482610b5f565b610cae8185610b6a565b935083602082028501610cc085610b7b565b8060005b85811015610cfc5784840389528151610cdd8582610c78565b9450610ce883610c8c565b925060208a01995050600181019050610cc4565b50829750879550505050505092915050565b60006020820190508181036000830152610d288184610c99565b905092915050565b7f4e487b7100000000000000000000000000000000000000000000000000000000600052601160045260246000fd5b6000610d6a82610aa0565b9150610d7583610aa0565b9250828201905080821115610d8d57610d8c610d30565b5b92915050565b600082825260208201905092915050565b7f596f75206e65656420746f2077616974203330207365636f6e6473206265666f60008201527f726520776176696e6720616761696e0000000000000000000000000000000000602082015250565b6000610e00602f83610d93565b9150610e0b82610da4565b604082019050919050565b60006020820190508181036000830152610e2f81610df3565b9050919050565b7f4e487b7100000000000000000000000000000000000000000000000000000000600052602260045260246000fd5b60006002820490506001821680610e7d57607f821691505b602082108103610e9057610e8f610e36565b5b50919050565b60008190508160005260206000209050919050565b60006020601f8301049050919050565b600082821b905092915050565b600060088302610ef87fffffffffffffffffffffffffffffffffffffffffffffffffffffffffffffffff82610ebb565b610f028683610ebb565b95508019841693508086168417925050509392505050565b6000819050919050565b6000610f3f610f3a610f3584610aa0565b610f1a565b610aa0565b9050919050565b6000819050919050565b610f5983610f24565b610f6d610f6582610f46565b848454610ec8565b825550505050565b600090565b610f82610f75565b610f8d818484610f50565b505050565b5b81811015610fb157610fa6600082610f7a565b600181019050610f93565b5050565b601f821115610ff657610fc781610e96565b610fd084610eab565b81016020851015610fdf578190505b610ff3610feb85610eab565b830182610f92565b50505b505050565b600082821c905092915050565b600061101960001984600802610ffb565b1980831691505092915050565b60006110328383611008565b9150826002028217905092915050565b61104b82610b9a565b67ffffffffffffffff8111156110645761106361092c565b5b61106e8254610e65565b611079828285610fb5565b600060209050601f8311600181146110ac576000841561109a578287015190505b6110a48582611026565b86555061110c565b601f1984166110ba86610e96565b60005b828110156110e2578489015182556001820191506020850194506020810190506110bd565b868310156110ff57848901516110fb601f891682611008565b8355505b6001600288020188555050505b505050505050565b7f4e487b7100000000000000000000000000000000000000000000000000000000600052601260045260246000fd5b600061114e82610aa0565b915061115983610aa0565b92508261116957611168611114565b5b828206905092915050565b7f547279696e6720746f207769746864726177206d6f726520657468657265756d60008201527f207468616e2074686520636f6e74726163742068617300000000000000000000602082015250565b60006111d0603683610d93565b91506111db82611174565b604082019050919050565b600060208201905081810360008301526111ff816111c3565b9050919050565b600081905092915050565b50565b6000611221600083611206565b915061122c82611211565b600082019050919050565b600061124282611214565b9150819050919050565b7f4661696c656420746f207769746864726177206d6f6e65792066726f6d20746860008201527f6520636f6e747261637400000000000000000000000000000000000000000000602082015250565b60006112a8602a83610d93565b91506112b38261124c565b604082019050919050565b600060208201905081810360008301526112d78161129b565b9050919050565b60006112e982610b9a565b6112f38185610d93565b9350611303818560208601610bb6565b61130c8161091b565b840191505092915050565b600060408201905061132c6000830185610aaa565b818103602083015261133e81846112de565b90509392505050565b6000602082019050818103600083015261136181846112de565b905092915050565b61137281610af4565b82525050565b6000606082019050818103600083015261139281866112de565b90506113a16020830185611369565b81810360408301526113b381846112de565b9050949350505050565b600060408201905081810360008301526113d781856112de565b90506113e66020830184610aaa565b9392505050565b6000604082019050818103600083015261140781856112de565b90506114166020830184611369565b939250505056fe257320776176656420776974682074686520666f6c6c6f77696e67206d6573736167653a202573a264697066735822122062148315ee26ed037fd84dd7be83d5e02368f615268e615b93f14467cfd87f0564736f6c63430008110033",
  "linkReferences": {},
  "deployedLinkReferences": {}
}